{
  "contractName": "product",
  "abi": [
    {
      "inputs": [
        {
          "internalType": "uint256",
          "name": "",
          "type": "uint256"
        }
      ],
      "name": "productItems",
      "outputs": [
        {
          "internalType": "uint256",
          "name": "productId",
          "type": "uint256"
        },
        {
          "internalType": "bytes32",
          "name": "productSN",
          "type": "bytes32"
        },
        {
          "internalType": "bytes32",
          "name": "productName",
          "type": "bytes32"
        },
        {
          "internalType": "bytes32",
          "name": "productBrand",
          "type": "bytes32"
        },
        {
          "internalType": "uint256",
          "name": "productPrice",
          "type": "uint256"
        },
        {
          "internalType": "bytes32",
          "name": "productStatus",
          "type": "bytes32"
        }
      ],
      "stateMutability": "view",
      "type": "function"
    },
    {
      "inputs": [
        {
          "internalType": "bytes32",
          "name": "",
          "type": "bytes32"
        }
      ],
      "name": "productMap",
      "outputs": [
        {
          "internalType": "uint256",
          "name": "",
          "type": "uint256"
        }
      ],
      "stateMutability": "view",
      "type": "function"
    },
    {
      "inputs": [
        {
          "internalType": "bytes32",
          "name": "",
          "type": "bytes32"
        }
      ],
      "name": "productsForSale",
      "outputs": [
        {
          "internalType": "bytes32",
          "name": "",
          "type": "bytes32"
        }
      ],
      "stateMutability": "view",
      "type": "function"
    },
    {
      "inputs": [
        {
          "internalType": "bytes32",
          "name": "",
          "type": "bytes32"
        }
      ],
      "name": "productsManufactured",
      "outputs": [
        {
          "internalType": "bytes32",
          "name": "",
          "type": "bytes32"
        }
      ],
      "stateMutability": "view",
      "type": "function"
    },
    {
      "inputs": [
        {
          "internalType": "bytes32",
          "name": "",
          "type": "bytes32"
        }
      ],
      "name": "productsSold",
      "outputs": [
        {
          "internalType": "bytes32",
          "name": "",
          "type": "bytes32"
        }
      ],
      "stateMutability": "view",
      "type": "function"
    },
    {
      "inputs": [
        {
          "internalType": "bytes32",
          "name": "",
          "type": "bytes32"
        },
        {
          "internalType": "uint256",
          "name": "",
          "type": "uint256"
        }
      ],
      "name": "productsWithConsumer",
      "outputs": [
        {
          "internalType": "bytes32",
          "name": "",
          "type": "bytes32"
        }
      ],
      "stateMutability": "view",
      "type": "function"
    },
    {
      "inputs": [
        {
          "internalType": "bytes32",
          "name": "",
          "type": "bytes32"
        },
        {
          "internalType": "uint256",
          "name": "",
          "type": "uint256"
        }
      ],
      "name": "productsWithSeller",
      "outputs": [
        {
          "internalType": "bytes32",
          "name": "",
          "type": "bytes32"
        }
      ],
      "stateMutability": "view",
      "type": "function"
    },
    {
      "inputs": [
        {
          "internalType": "uint256",
          "name": "",
          "type": "uint256"
        }
      ],
      "name": "sellers",
      "outputs": [
        {
          "internalType": "uint256",
          "name": "sellerId",
          "type": "uint256"
        },
        {
          "internalType": "bytes32",
          "name": "sellerName",
          "type": "bytes32"
        },
        {
          "internalType": "bytes32",
          "name": "sellerBrand",
          "type": "bytes32"
        },
        {
          "internalType": "bytes32",
          "name": "sellerCode",
          "type": "bytes32"
        },
        {
          "internalType": "uint256",
          "name": "sellerNum",
          "type": "uint256"
        },
        {
          "internalType": "bytes32",
          "name": "sellerManager",
          "type": "bytes32"
        },
        {
          "internalType": "bytes32",
          "name": "sellerAddress",
          "type": "bytes32"
        }
      ],
      "stateMutability": "view",
      "type": "function"
    },
    {
      "inputs": [
        {
          "internalType": "bytes32",
          "name": "",
          "type": "bytes32"
        },
        {
          "internalType": "uint256",
          "name": "",
          "type": "uint256"
        }
      ],
      "name": "sellersWithManufacturer",
      "outputs": [
        {
          "internalType": "bytes32",
          "name": "",
          "type": "bytes32"
        }
      ],
      "stateMutability": "view",
      "type": "function"
    },
    {
      "inputs": [
        {
          "internalType": "bytes32",
          "name": "_manufacturerId",
          "type": "bytes32"
        },
        {
          "internalType": "bytes32",
          "name": "_sellerName",
          "type": "bytes32"
        },
        {
          "internalType": "bytes32",
          "name": "_sellerBrand",
          "type": "bytes32"
        },
        {
          "internalType": "bytes32",
          "name": "_sellerCode",
          "type": "bytes32"
        },
        {
          "internalType": "uint256",
          "name": "_sellerNum",
          "type": "uint256"
        },
        {
          "internalType": "bytes32",
          "name": "_sellerManager",
          "type": "bytes32"
        },
        {
          "internalType": "bytes32",
          "name": "_sellerAddress",
          "type": "bytes32"
        }
      ],
      "name": "addSeller",
      "outputs": [],
      "stateMutability": "nonpayable",
      "type": "function"
    },
    {
      "inputs": [],
      "name": "viewSellers",
      "outputs": [
        {
          "internalType": "uint256[]",
          "name": "",
          "type": "uint256[]"
        },
        {
          "internalType": "bytes32[]",
          "name": "",
          "type": "bytes32[]"
        },
        {
          "internalType": "bytes32[]",
          "name": "",
          "type": "bytes32[]"
        },
        {
          "internalType": "bytes32[]",
          "name": "",
          "type": "bytes32[]"
        },
        {
          "internalType": "uint256[]",
          "name": "",
          "type": "uint256[]"
        },
        {
          "internalType": "bytes32[]",
          "name": "",
          "type": "bytes32[]"
        },
        {
          "internalType": "bytes32[]",
          "name": "",
          "type": "bytes32[]"
        }
      ],
      "stateMutability": "view",
      "type": "function"
    },
    {
      "inputs": [
        {
          "internalType": "bytes32",
          "name": "_manufactuerID",
          "type": "bytes32"
        },
        {
          "internalType": "bytes32",
          "name": "_productName",
          "type": "bytes32"
        },
        {
          "internalType": "bytes32",
          "name": "_productSN",
          "type": "bytes32"
        },
        {
          "internalType": "bytes32",
          "name": "_productBrand",
          "type": "bytes32"
        },
        {
          "internalType": "uint256",
          "name": "_productPrice",
          "type": "uint256"
        }
      ],
      "name": "addProduct",
      "outputs": [],
      "stateMutability": "nonpayable",
      "type": "function"
    },
    {
      "inputs": [],
      "name": "viewProductItems",
      "outputs": [
        {
          "internalType": "uint256[]",
          "name": "",
          "type": "uint256[]"
        },
        {
          "internalType": "bytes32[]",
          "name": "",
          "type": "bytes32[]"
        },
        {
          "internalType": "bytes32[]",
          "name": "",
          "type": "bytes32[]"
        },
        {
          "internalType": "bytes32[]",
          "name": "",
          "type": "bytes32[]"
        },
        {
          "internalType": "uint256[]",
          "name": "",
          "type": "uint256[]"
        },
        {
          "internalType": "bytes32[]",
          "name": "",
          "type": "bytes32[]"
        }
      ],
      "stateMutability": "view",
      "type": "function"
    },
    {
      "inputs": [
        {
          "internalType": "bytes32",
          "name": "_productSN",
          "type": "bytes32"
        },
        {
          "internalType": "bytes32",
          "name": "_sellerCode",
          "type": "bytes32"
        }
      ],
      "name": "manufacturerSellProduct",
      "outputs": [],
      "stateMutability": "nonpayable",
      "type": "function"
    },
    {
      "inputs": [
        {
          "internalType": "bytes32",
          "name": "_productSN",
          "type": "bytes32"
        },
        {
          "internalType": "bytes32",
          "name": "_consumerCode",
          "type": "bytes32"
        }
      ],
      "name": "sellerSellProduct",
      "outputs": [],
      "stateMutability": "nonpayable",
      "type": "function"
    },
    {
      "inputs": [
        {
          "internalType": "bytes32",
          "name": "_sellerCode",
          "type": "bytes32"
        }
      ],
      "name": "queryProductsList",
      "outputs": [
        {
          "internalType": "uint256[]",
          "name": "",
          "type": "uint256[]"
        },
        {
          "internalType": "bytes32[]",
          "name": "",
          "type": "bytes32[]"
        },
        {
          "internalType": "bytes32[]",
          "name": "",
          "type": "bytes32[]"
        },
        {
          "internalType": "bytes32[]",
          "name": "",
          "type": "bytes32[]"
        },
        {
          "internalType": "uint256[]",
          "name": "",
          "type": "uint256[]"
        },
        {
          "internalType": "bytes32[]",
          "name": "",
          "type": "bytes32[]"
        }
      ],
      "stateMutability": "view",
      "type": "function"
    },
    {
      "inputs": [
        {
          "internalType": "bytes32",
          "name": "_consumerCode",
          "type": "bytes32"
        }
      ],
      "name": "getDetailedPurchaseHistory",
      "outputs": [
        {
          "internalType": "bytes32[]",
          "name": "",
          "type": "bytes32[]"
        },
        {
          "internalType": "bytes32[]",
          "name": "",
          "type": "bytes32[]"
        },
        {
          "internalType": "bytes32[]",
          "name": "",
          "type": "bytes32[]"
        },
        {
          "internalType": "uint256[]",
          "name": "",
          "type": "uint256[]"
        },
        {
          "internalType": "bytes32[]",
          "name": "",
          "type": "bytes32[]"
        },
        {
          "internalType": "bytes32[]",
          "name": "",
          "type": "bytes32[]"
        }
      ],
      "stateMutability": "view",
      "type": "function"
    },
    {
      "inputs": [
        {
          "internalType": "bytes32",
          "name": "_productSN",
          "type": "bytes32"
        },
        {
          "internalType": "bytes32",
          "name": "_consumerCode",
          "type": "bytes32"
        }
      ],
      "name": "verifyProduct",
      "outputs": [
        {
          "internalType": "bool",
          "name": "",
          "type": "bool"
        }
      ],
      "stateMutability": "view",
      "type": "function"
    }
  ],
  "bytecode": "0x608060405234801561001057600080fd5b50612080806100206000396000f3fe608060405234801561001057600080fd5b50600436106101165760003560e01c80639316bff0116100a2578063c20805b411610071578063c20805b41461032c578063caaf27511461035c578063cd4f6a2e14610391578063cee26ed5146103c1578063e262113f146103f757610116565b80639316bff0146102945780639cd777dd146102b0578063a090f47c146102e0578063b0c7ad941461031057610116565b80631b3658c8116100e95780631b3658c8146101c7578063344b5d51146101e35780634b993001146102135780638577a7011461024357806392162bc41461025f57610116565b8063032f95e61461011b578063070e13af1461013f578063100b6ba2146101745780631836bd4b146101a4575b600080fd5b610123610427565b6040516101369796959493929190611a10565b60405180910390f35b61015960048036038101906101549190611ae1565b610814565b60405161016b96959493929190611b0e565b60405180910390f35b61018e60048036038101906101899190611ae1565b610c1a565b60405161019b9190611ba8565b60405180910390f35b6101ac610c32565b6040516101be96959493929190611bc3565b60405180910390f35b6101e160048036038101906101dc9190611c7a565b610f9a565b005b6101fd60048036038101906101f89190611d1c565b611086565b60405161020a9190611d77565b60405180910390f35b61022d60048036038101906102289190611d92565b6110b7565b60405161023a9190611de1565b60405180910390f35b61025d60048036038101906102589190611d1c565b6110e8565b005b61027960048036038101906102749190611ae1565b61113e565b60405161028b96959493929190611bc3565b60405180910390f35b6102ae60048036038101906102a99190611dfc565b61153a565b005b6102ca60048036038101906102c59190611d92565b61162e565b6040516102d79190611de1565b60405180910390f35b6102fa60048036038101906102f59190611ae1565b61165f565b6040516103079190611de1565b60405180910390f35b61032a60048036038101906103259190611d1c565b611677565b005b61034660048036038101906103419190611ae1565b6117a1565b6040516103539190611de1565b60405180910390f35b61037660048036038101906103719190611e77565b6117b9565b60405161038896959493929190611ea4565b60405180910390f35b6103ab60048036038101906103a69190611ae1565b6117f5565b6040516103b89190611de1565b60405180910390f35b6103db60048036038101906103d69190611e77565b61180d565b6040516103ee9796959493929190611f05565b60405180910390f35b610411600480360381019061040c9190611d92565b61184f565b60405161041e9190611de1565b60405180910390f35b60608060608060608060606000805467ffffffffffffffff81111561044f5761044e611f74565b5b60405190808252806020026020018201604052801561047d5781602001602082028036833780820191505090505b5090506000805467ffffffffffffffff81111561049d5761049c611f74565b5b6040519080825280602002602001820160405280156104cb5781602001602082028036833780820191505090505b5090506000805467ffffffffffffffff8111156104eb576104ea611f74565b5b6040519080825280602002602001820160405280156105195781602001602082028036833780820191505090505b5090506000805467ffffffffffffffff81111561053957610538611f74565b5b6040519080825280602002602001820160405280156105675781602001602082028036833780820191505090505b5090506000805467ffffffffffffffff81111561058757610586611f74565b5b6040519080825280602002602001820160405280156105b55781602001602082028036833780820191505090505b5090506000805467ffffffffffffffff8111156105d5576105d4611f74565b5b6040519080825280602002602001820160405280156106035781602001602082028036833780820191505090505b5090506000805467ffffffffffffffff81111561062357610622611f74565b5b6040519080825280602002602001820160405280156106515781602001602082028036833780820191505090505b50905060005b6000548110156107ee57600260008281526020019081526020016000206000015488828151811061068b5761068a611fa3565b5b60200260200101818152505060026000828152602001908152602001600020600101548782815181106106c1576106c0611fa3565b5b60200260200101818152505060026000828152602001908152602001600020600201548682815181106106f7576106f6611fa3565b5b602002602001018181525050600260008281526020019081526020016000206003015485828151811061072d5761072c611fa3565b5b602002602001018181525050600260008281526020019081526020016000206004015484828151811061076357610762611fa3565b5b602002602001018181525050600260008281526020019081526020016000206005015483828151811061079957610798611fa3565b5b60200260200101818152505060026000828152602001908152602001600020600601548282815181106107cf576107ce611fa3565b5b60200260200101818152505080806107e690612001565b915050610657565b50868686868686869d509d509d509d509d509d509d505050505050505090919293949596565b60608060608060608060006009600089815260200190815260200160002080548060200260200160405190810160405280929190818152602001828054801561087c57602002820191906000526020600020905b815481526020019060010190808311610868575b5050505050905060008151905060008167ffffffffffffffff8111156108a5576108a4611f74565b5b6040519080825280602002602001820160405280156108d35781602001602082028036833780820191505090505b50905060008267ffffffffffffffff8111156108f2576108f1611f74565b5b6040519080825280602002602001820160405280156109205781602001602082028036833780820191505090505b50905060008367ffffffffffffffff81111561093f5761093e611f74565b5b60405190808252806020026020018201604052801561096d5781602001602082028036833780820191505090505b50905060008467ffffffffffffffff81111561098c5761098b611f74565b5b6040519080825280602002602001820160405280156109ba5781602001602082028036833780820191505090505b50905060008567ffffffffffffffff8111156109d9576109d8611f74565b5b604051908082528060200260200182016040528015610a075781602001602082028036833780820191505090505b50905060005b86811015610bf7576000600460008a8481518110610a2e57610a2d611fa3565b5b602002602001015181526020019081526020016000205490506003600082815260200190815260200160002060020154878381518110610a7157610a70611fa3565b5b6020026020010181815250506003600082815260200190815260200160002060030154868381518110610aa757610aa6611fa3565b5b6020026020010181815250506003600082815260200190815260200160002060040154858381518110610add57610adc611fa3565b5b6020026020010181815250506000600660008b8581518110610b0257610b01611fa3565b5b6020026020010151815260200190815260200160002054905060005b600054811015610b94578160026000838152602001908152602001600020600301541415610b81576002600082815260200190815260200160002060010154868581518110610b7057610b6f611fa3565b5b602002602001018181525050610b94565b8080610b8c90612001565b915050610b1e565b50600560008b8581518110610bac57610bab611fa3565b5b6020026020010151815260200190815260200160002054848481518110610bd657610bd5611fa3565b5b60200260200101818152505050508080610bef90612001565b915050610a0d565b508685858585859c509c509c509c509c509c505050505050505091939550919395565b60046020528060005260406000206000915090505481565b606080606080606080600060015467ffffffffffffffff811115610c5957610c58611f74565b5b604051908082528060200260200182016040528015610c875781602001602082028036833780820191505090505b509050600060015467ffffffffffffffff811115610ca857610ca7611f74565b5b604051908082528060200260200182016040528015610cd65781602001602082028036833780820191505090505b509050600060015467ffffffffffffffff811115610cf757610cf6611f74565b5b604051908082528060200260200182016040528015610d255781602001602082028036833780820191505090505b509050600060015467ffffffffffffffff811115610d4657610d45611f74565b5b604051908082528060200260200182016040528015610d745781602001602082028036833780820191505090505b509050600060015467ffffffffffffffff811115610d9557610d94611f74565b5b604051908082528060200260200182016040528015610dc35781602001602082028036833780820191505090505b509050600060015467ffffffffffffffff811115610de457610de3611f74565b5b604051908082528060200260200182016040528015610e125781602001602082028036833780820191505090505b50905060005b600154811015610f79576003600082815260200190815260200160002060000154878281518110610e4c57610e4b611fa3565b5b6020026020010181815250506003600082815260200190815260200160002060010154868281518110610e8257610e81611fa3565b5b6020026020010181815250506003600082815260200190815260200160002060020154858281518110610eb857610eb7611fa3565b5b6020026020010181815250506003600082815260200190815260200160002060030154848281518110610eee57610eed611fa3565b5b6020026020010181815250506003600082815260200190815260200160002060040154838281518110610f2457610f23611fa3565b5b6020026020010181815250506003600082815260200190815260200160002060050154828281518110610f5a57610f59611fa3565b5b6020026020010181815250508080610f7190612001565b915050610e18565b508585858585859b509b509b509b509b509b50505050505050909192939495565b6040518060e001604052806000548152602001878152602001868152602001858152602001848152602001838152602001828152506002600080548152602001908152602001600020600082015181600001556020820151816001015560408201518160020155606082015181600301556080820151816004015560a0820151816005015560c0820151816006015590505060008081548092919061103e90612001565b9190505550600a600088815260200190815260200160002084908060018154018082558091505060019003906000526020600020016000909190919091505550505050505050565b600081600760008581526020019081526020016000205414156110ac57600190506110b1565b600090505b92915050565b600860205281600052604060002081815481106110d357600080fd5b90600052602060002001600091509150505481565b600860008281526020019081526020016000208290806001815401808255809150506001900390600052602060002001600090919091909150558060066000848152602001908152602001600020819055505050565b6060806060806060806000600860008981526020019081526020016000208054806020026020016040519081016040528092919081815260200182805480156111a657602002820191906000526020600020905b815481526020019060010190808311611192575b5050505050905060008151905060008167ffffffffffffffff8111156111cf576111ce611f74565b5b6040519080825280602002602001820160405280156111fd5781602001602082028036833780820191505090505b50905060008267ffffffffffffffff81111561121c5761121b611f74565b5b60405190808252806020026020018201604052801561124a5781602001602082028036833780820191505090505b50905060008367ffffffffffffffff81111561126957611268611f74565b5b6040519080825280602002602001820160405280156112975781602001602082028036833780820191505090505b50905060008467ffffffffffffffff8111156112b6576112b5611f74565b5b6040519080825280602002602001820160405280156112e45781602001602082028036833780820191505090505b50905060008567ffffffffffffffff81111561130357611302611f74565b5b6040519080825280602002602001820160405280156113315781602001602082028036833780820191505090505b50905060008667ffffffffffffffff8111156113505761134f611f74565b5b60405190808252806020026020018201604052801561137e5781602001602082028036833780820191505090505b50905060005b87811015611516576000600460008b84815181106113a5576113a4611fa3565b5b6020026020010151815260200190815260200160002054905060036000828152602001908152602001600020600001548883815181106113e8576113e7611fa3565b5b602002602001018181525050600360008281526020019081526020016000206001015487838151811061141e5761141d611fa3565b5b602002602001018181525050600360008281526020019081526020016000206002015486838151811061145457611453611fa3565b5b602002602001018181525050600360008281526020019081526020016000206003015485838151811061148a57611489611fa3565b5b60200260200101818152505060036000828152602001908152602001600020600401548483815181106114c0576114bf611fa3565b5b60200260200101818152505060036000828152602001908152602001600020600501548383815181106114f6576114f5611fa3565b5b60200260200101818152505050808061150e90612001565b915050611384565b508585858585859d509d509d509d509d509d50505050505050505091939550919395565b6040518060c0016040528060015481526020018481526020018581526020018381526020018281526020017f417661696c61626c650000000000000000000000000000000000000000000000815250600360006001548152602001908152602001600020600082015181600001556020820151816001015560408201518160020155606082015181600301556080820151816004015560a0820151816005015590505060015460046000858152602001908152602001600020819055506001600081548092919061160a90612001565b91905055508460056000858152602001908152602001600020819055505050505050565b6009602052816000526040600020818154811061164a57600080fd5b90600052602060002001600091509150505481565b60066020528060005260406000206000915090505481565b60008060008060015411156116cb57600091505b6001548210156116ca5784600360008481526020019081526020016000206001015414156116b7578190505b81806116c290612001565b92505061168b565b5b600360008281526020019081526020016000206005015492507f417661696c61626c65000000000000000000000000000000000000000000000083141561179a577f4e410000000000000000000000000000000000000000000000000000000000006003600083815260200190815260200160002060050181905550600960008581526020019081526020016000208590806001815401808255809150506001900390600052602060002001600090919091909150558360076000878152602001908152602001600020819055505b5050505050565b60056020528060005260406000206000915090505481565b60036020528060005260406000206000915090508060000154908060010154908060020154908060030154908060040154908060050154905086565b60076020528060005260406000206000915090505481565b60026020528060005260406000206000915090508060000154908060010154908060020154908060030154908060040154908060050154908060060154905087565b600a602052816000526040600020818154811061186b57600080fd5b90600052602060002001600091509150505481565b600081519050919050565b600082825260208201905092915050565b6000819050602082019050919050565b6000819050919050565b6118bf816118ac565b82525050565b60006118d183836118b6565b60208301905092915050565b6000602082019050919050565b60006118f582611880565b6118ff818561188b565b935061190a8361189c565b8060005b8381101561193b57815161192288826118c5565b975061192d836118dd565b92505060018101905061190e565b5085935050505092915050565b600081519050919050565b600082825260208201905092915050565b6000819050602082019050919050565b6000819050919050565b61198781611974565b82525050565b6000611999838361197e565b60208301905092915050565b6000602082019050919050565b60006119bd82611948565b6119c78185611953565b93506119d283611964565b8060005b83811015611a035781516119ea888261198d565b97506119f5836119a5565b9250506001810190506119d6565b5085935050505092915050565b600060e0820190508181036000830152611a2a818a6118ea565b90508181036020830152611a3e81896119b2565b90508181036040830152611a5281886119b2565b90508181036060830152611a6681876119b2565b90508181036080830152611a7a81866118ea565b905081810360a0830152611a8e81856119b2565b905081810360c0830152611aa281846119b2565b905098975050505050505050565b600080fd5b611abe81611974565b8114611ac957600080fd5b50565b600081359050611adb81611ab5565b92915050565b600060208284031215611af757611af6611ab0565b5b6000611b0584828501611acc565b91505092915050565b600060c0820190508181036000830152611b2881896119b2565b90508181036020830152611b3c81886119b2565b90508181036040830152611b5081876119b2565b90508181036060830152611b6481866118ea565b90508181036080830152611b7881856119b2565b905081810360a0830152611b8c81846119b2565b9050979650505050505050565b611ba2816118ac565b82525050565b6000602082019050611bbd6000830184611b99565b92915050565b600060c0820190508181036000830152611bdd81896118ea565b90508181036020830152611bf181886119b2565b90508181036040830152611c0581876119b2565b90508181036060830152611c1981866119b2565b90508181036080830152611c2d81856118ea565b905081810360a0830152611c4181846119b2565b9050979650505050505050565b611c57816118ac565b8114611c6257600080fd5b50565b600081359050611c7481611c4e565b92915050565b600080600080600080600060e0888a031215611c9957611c98611ab0565b5b6000611ca78a828b01611acc565b9750506020611cb88a828b01611acc565b9650506040611cc98a828b01611acc565b9550506060611cda8a828b01611acc565b9450506080611ceb8a828b01611c65565b93505060a0611cfc8a828b01611acc565b92505060c0611d0d8a828b01611acc565b91505092959891949750929550565b60008060408385031215611d3357611d32611ab0565b5b6000611d4185828601611acc565b9250506020611d5285828601611acc565b9150509250929050565b60008115159050919050565b611d7181611d5c565b82525050565b6000602082019050611d8c6000830184611d68565b92915050565b60008060408385031215611da957611da8611ab0565b5b6000611db785828601611acc565b9250506020611dc885828601611c65565b9150509250929050565b611ddb81611974565b82525050565b6000602082019050611df66000830184611dd2565b92915050565b600080600080600060a08688031215611e1857611e17611ab0565b5b6000611e2688828901611acc565b9550506020611e3788828901611acc565b9450506040611e4888828901611acc565b9350506060611e5988828901611acc565b9250506080611e6a88828901611c65565b9150509295509295909350565b600060208284031215611e8d57611e8c611ab0565b5b6000611e9b84828501611c65565b91505092915050565b600060c082019050611eb96000830189611b99565b611ec66020830188611dd2565b611ed36040830187611dd2565b611ee06060830186611dd2565b611eed6080830185611b99565b611efa60a0830184611dd2565b979650505050505050565b600060e082019050611f1a600083018a611b99565b611f276020830189611dd2565b611f346040830188611dd2565b611f416060830187611dd2565b611f4e6080830186611b99565b611f5b60a0830185611dd2565b611f6860c0830184611dd2565b98975050505050505050565b7f4e487b7100000000000000000000000000000000000000000000000000000000600052604160045260246000fd5b7f4e487b7100000000000000000000000000000000000000000000000000000000600052603260045260246000fd5b7f4e487b7100000000000000000000000000000000000000000000000000000000600052601160045260246000fd5b600061200c826118ac565b91507fffffffffffffffffffffffffffffffffffffffffffffffffffffffffffffffff82141561203f5761203e611fd2565b5b60018201905091905056fea26469706673582212200a521d8c05de0ff794156552fb5786cb97f8513f8c1ce019daf435cc0110c44064736f6c634300080c0033",
  "immutableReferences": {},
  "source": "// SPDX-License-Identifier: MIT\n\npragma solidity ^0.8.12;\n\ncontract product {\n    uint256 sellerCount;\n    uint256 productCount;\n\n    struct seller {\n        uint256 sellerId;\n        bytes32 sellerName;\n        bytes32 sellerBrand;\n        bytes32 sellerCode;\n        uint256 sellerNum;\n        bytes32 sellerManager;\n        bytes32 sellerAddress;\n    }\n    mapping(uint => seller) public sellers;\n\n    struct productItem {\n        uint256 productId;\n        bytes32 productSN;\n        bytes32 productName;\n        bytes32 productBrand;\n        uint256 productPrice;\n        bytes32 productStatus;\n    }\n\n    mapping(uint256 => productItem) public productItems;\n    mapping(bytes32 => uint256) public productMap;\n    mapping(bytes32 => bytes32) public productsManufactured;\n    mapping(bytes32 => bytes32) public productsForSale;\n    mapping(bytes32 => bytes32) public productsSold;\n    mapping(bytes32 => bytes32[]) public productsWithSeller;\n    mapping(bytes32 => bytes32[]) public productsWithConsumer;\n    mapping(bytes32 => bytes32[]) public sellersWithManufacturer;\n\n    //SELLER SECTION\n\n    function addSeller(\n        bytes32 _manufacturerId,\n        bytes32 _sellerName,\n        bytes32 _sellerBrand,\n        bytes32 _sellerCode,\n        uint256 _sellerNum,\n        bytes32 _sellerManager,\n        bytes32 _sellerAddress\n    ) public {\n        sellers[sellerCount] = seller(\n            sellerCount,\n            _sellerName,\n            _sellerBrand,\n            _sellerCode,\n            _sellerNum,\n            _sellerManager,\n            _sellerAddress\n        );\n        sellerCount++;\n\n        sellersWithManufacturer[_manufacturerId].push(_sellerCode);\n    }\n\n    function viewSellers()\n        public\n        view\n        returns (\n            uint256[] memory,\n            bytes32[] memory,\n            bytes32[] memory,\n            bytes32[] memory,\n            uint256[] memory,\n            bytes32[] memory,\n            bytes32[] memory\n        )\n    {\n        uint256[] memory ids = new uint256[](sellerCount);\n        bytes32[] memory snames = new bytes32[](sellerCount);\n        bytes32[] memory sbrands = new bytes32[](sellerCount);\n        bytes32[] memory scodes = new bytes32[](sellerCount);\n        uint256[] memory snums = new uint256[](sellerCount);\n        bytes32[] memory smanagers = new bytes32[](sellerCount);\n        bytes32[] memory saddress = new bytes32[](sellerCount);\n\n        for (uint i = 0; i < sellerCount; i++) {\n            ids[i] = sellers[i].sellerId;\n            snames[i] = sellers[i].sellerName;\n            sbrands[i] = sellers[i].sellerBrand;\n            scodes[i] = sellers[i].sellerCode;\n            snums[i] = sellers[i].sellerNum;\n            smanagers[i] = sellers[i].sellerManager;\n            saddress[i] = sellers[i].sellerAddress;\n        }\n        return (ids, snames, sbrands, scodes, snums, smanagers, saddress);\n    }\n\n    //PRODUCT SECTION\n\n    function addProduct(\n        bytes32 _manufactuerID,\n        bytes32 _productName,\n        bytes32 _productSN,\n        bytes32 _productBrand,\n        uint256 _productPrice\n    ) public {\n        productItems[productCount] = productItem(\n            productCount,\n            _productSN,\n            _productName,\n            _productBrand,\n            _productPrice,\n            \"Available\"\n        );\n        productMap[_productSN] = productCount;\n        productCount++;\n        productsManufactured[_productSN] = _manufactuerID;\n    }\n\n    function viewProductItems()\n        public\n        view\n        returns (\n            uint256[] memory,\n            bytes32[] memory,\n            bytes32[] memory,\n            bytes32[] memory,\n            uint256[] memory,\n            bytes32[] memory\n        )\n    {\n        uint256[] memory pids = new uint256[](productCount);\n        bytes32[] memory pSNs = new bytes32[](productCount);\n        bytes32[] memory pnames = new bytes32[](productCount);\n        bytes32[] memory pbrands = new bytes32[](productCount);\n        uint256[] memory pprices = new uint256[](productCount);\n        bytes32[] memory pstatus = new bytes32[](productCount);\n\n        for (uint i = 0; i < productCount; i++) {\n            pids[i] = productItems[i].productId;\n            pSNs[i] = productItems[i].productSN;\n            pnames[i] = productItems[i].productName;\n            pbrands[i] = productItems[i].productBrand;\n            pprices[i] = productItems[i].productPrice;\n            pstatus[i] = productItems[i].productStatus;\n        }\n        return (pids, pSNs, pnames, pbrands, pprices, pstatus);\n    }\n\n    //SELL Product\n    function manufacturerSellProduct(\n        bytes32 _productSN,\n        bytes32 _sellerCode\n    ) public {\n        productsWithSeller[_sellerCode].push(_productSN);\n        productsForSale[_productSN] = _sellerCode;\n    }\n\n    function sellerSellProduct(\n        bytes32 _productSN,\n        bytes32 _consumerCode\n    ) public {\n        bytes32 pStatus;\n        uint256 i;\n        uint256 j = 0;\n\n        if (productCount > 0) {\n            for (i = 0; i < productCount; i++) {\n                if (productItems[i].productSN == _productSN) {\n                    j = i;\n                }\n            }\n        }\n\n        pStatus = productItems[j].productStatus;\n        if (pStatus == \"Available\") {\n            productItems[j].productStatus = \"NA\";\n            productsWithConsumer[_consumerCode].push(_productSN);\n            productsSold[_productSN] = _consumerCode;\n        }\n    }\n\n    function queryProductsList(\n        bytes32 _sellerCode\n    )\n        public\n        view\n        returns (\n            uint256[] memory,\n            bytes32[] memory,\n            bytes32[] memory,\n            bytes32[] memory,\n            uint256[] memory,\n            bytes32[] memory\n        )\n    {\n        bytes32[] memory productSNs = productsWithSeller[_sellerCode];\n        uint256 length = productSNs.length;\n\n        uint256[] memory pids = new uint256[](length);\n        bytes32[] memory pSNs = new bytes32[](length);\n        bytes32[] memory pnames = new bytes32[](length);\n        bytes32[] memory pbrands = new bytes32[](length);\n        uint256[] memory pprices = new uint256[](length);\n        bytes32[] memory pstatus = new bytes32[](length);\n\n        for (uint i = 0; i < length; i++) {\n            uint256 productId = productMap[productSNs[i]];\n            pids[i] = productItems[productId].productId;\n            pSNs[i] = productItems[productId].productSN;\n            pnames[i] = productItems[productId].productName;\n            pbrands[i] = productItems[productId].productBrand;\n            pprices[i] = productItems[productId].productPrice;\n            pstatus[i] = productItems[productId].productStatus;\n        }\n        return (pids, pSNs, pnames, pbrands, pprices, pstatus);\n    }\n\n    // function getPurchaseHistory(\n    //     bytes32 _consumerCode\n    // )\n    //     public\n    //     view\n    //     returns (bytes32[] memory, bytes32[] memory, bytes32[] memory)\n    // {\n    //     bytes32[] memory productSNs = productsWithConsumer[_consumerCode];\n    //     bytes32[] memory sellerCodes = new bytes32[](productSNs.length);\n    //     bytes32[] memory manufacturerCodes = new bytes32[](productSNs.length);\n    //     for (uint i = 0; i < productSNs.length; i++) {\n    //         sellerCodes[i] = productsForSale[productSNs[i]];\n    //         manufacturerCodes[i] = productsManufactured[productSNs[i]];\n    //     }\n    //     return (productSNs, sellerCodes, manufacturerCodes);\n    // }\n\n    function getDetailedPurchaseHistory(\n        bytes32 _consumerCode\n    )\n        public\n        view\n        returns (\n            bytes32[] memory, // Product Serial Numbers\n            bytes32[] memory, // Product Names\n            bytes32[] memory, // Product Brands\n            uint256[] memory, // Product Prices\n            bytes32[] memory, // Seller Names\n            bytes32[] memory // Manufacturer Codes\n        )\n    {\n        bytes32[] memory productSNs = productsWithConsumer[_consumerCode];\n        uint256 length = productSNs.length;\n\n        bytes32[] memory productNames = new bytes32[](length);\n        bytes32[] memory productBrands = new bytes32[](length);\n        uint256[] memory productPrices = new uint256[](length);\n        bytes32[] memory sellerNames = new bytes32[](length);\n        bytes32[] memory manufacturerCodes = new bytes32[](length);\n\n        for (uint i = 0; i < length; i++) {\n            uint256 productId = productMap[productSNs[i]];\n            productNames[i] = productItems[productId].productName;\n            productBrands[i] = productItems[productId].productBrand;\n            productPrices[i] = productItems[productId].productPrice;\n\n            bytes32 sellerCode = productsForSale[productSNs[i]];\n            for (uint j = 0; j < sellerCount; j++) {\n                if (sellers[j].sellerCode == sellerCode) {\n                    sellerNames[i] = sellers[j].sellerName;\n                    break;\n                }\n            }\n\n            manufacturerCodes[i] = productsManufactured[productSNs[i]];\n        }\n\n        return (\n            productSNs,\n            productNames,\n            productBrands,\n            productPrices,\n            sellerNames,\n            manufacturerCodes\n        );\n    }\n\n    //Verify\n\n    function verifyProduct(\n        bytes32 _productSN,\n        bytes32 _consumerCode\n    ) public view returns (bool) {\n        if (productsSold[_productSN] == _consumerCode) {\n            return true;\n        } else {\n            return false;\n        }\n    }\n}\n",
  "sourcePath": "/home/arch24/Documents/Blockchain/Fake_product_identification/contracts/Product.sol",
  "compiler": {
    "name": "solc",
    "version": "0.8.12+commit.f00d7308.Emscripten.clang"
  },
  "schemaVersion": "3.4.16",
  "updatedAt": "2024-11-26T04:24:41.195Z",
  "devdoc": {
    "kind": "dev",
    "methods": {},
    "version": 1
  },
  "userdoc": {
    "kind": "user",
    "methods": {},
    "version": 1
  }
}